{
  "_format": "hh-sol-artifact-1",
  "contractName": "Apeful",
  "sourceName": "contracts/Apeful.sol",
  "abi": [
    {
      "inputs": [],
      "stateMutability": "nonpayable",
      "type": "constructor"
    },
    {
      "inputs": [],
      "name": "ERC721EnumerableForbiddenBatchMint",
      "type": "error"
    },
    {
      "inputs": [
        {
          "internalType": "address",
          "name": "sender",
          "type": "address"
        },
        {
          "internalType": "uint256",
          "name": "tokenId",
          "type": "uint256"
        },
        {
          "internalType": "address",
          "name": "owner",
          "type": "address"
        }
      ],
      "name": "ERC721IncorrectOwner",
      "type": "error"
    },
    {
      "inputs": [
        {
          "internalType": "address",
          "name": "operator",
          "type": "address"
        },
        {
          "internalType": "uint256",
          "name": "tokenId",
          "type": "uint256"
        }
      ],
      "name": "ERC721InsufficientApproval",
      "type": "error"
    },
    {
      "inputs": [
        {
          "internalType": "address",
          "name": "approver",
          "type": "address"
        }
      ],
      "name": "ERC721InvalidApprover",
      "type": "error"
    },
    {
      "inputs": [
        {
          "internalType": "address",
          "name": "operator",
          "type": "address"
        }
      ],
      "name": "ERC721InvalidOperator",
      "type": "error"
    },
    {
      "inputs": [
        {
          "internalType": "address",
          "name": "owner",
          "type": "address"
        }
      ],
      "name": "ERC721InvalidOwner",
      "type": "error"
    },
    {
      "inputs": [
        {
          "internalType": "address",
          "name": "receiver",
          "type": "address"
        }
      ],
      "name": "ERC721InvalidReceiver",
      "type": "error"
    },
    {
      "inputs": [
        {
          "internalType": "address",
          "name": "sender",
          "type": "address"
        }
      ],
      "name": "ERC721InvalidSender",
      "type": "error"
    },
    {
      "inputs": [
        {
          "internalType": "uint256",
          "name": "tokenId",
          "type": "uint256"
        }
      ],
      "name": "ERC721NonexistentToken",
      "type": "error"
    },
    {
      "inputs": [
        {
          "internalType": "address",
          "name": "owner",
          "type": "address"
        },
        {
          "internalType": "uint256",
          "name": "index",
          "type": "uint256"
        }
      ],
      "name": "ERC721OutOfBoundsIndex",
      "type": "error"
    },
    {
      "anonymous": false,
      "inputs": [
        {
          "indexed": true,
          "internalType": "address",
          "name": "owner",
          "type": "address"
        },
        {
          "indexed": true,
          "internalType": "address",
          "name": "approved",
          "type": "address"
        },
        {
          "indexed": true,
          "internalType": "uint256",
          "name": "tokenId",
          "type": "uint256"
        }
      ],
      "name": "Approval",
      "type": "event"
    },
    {
      "anonymous": false,
      "inputs": [
        {
          "indexed": true,
          "internalType": "address",
          "name": "owner",
          "type": "address"
        },
        {
          "indexed": true,
          "internalType": "address",
          "name": "operator",
          "type": "address"
        },
        {
          "indexed": false,
          "internalType": "bool",
          "name": "approved",
          "type": "bool"
        }
      ],
      "name": "ApprovalForAll",
      "type": "event"
    },
    {
      "anonymous": false,
      "inputs": [
        {
          "indexed": true,
          "internalType": "address",
          "name": "from",
          "type": "address"
        },
        {
          "indexed": true,
          "internalType": "address",
          "name": "to",
          "type": "address"
        },
        {
          "indexed": true,
          "internalType": "uint256",
          "name": "tokenId",
          "type": "uint256"
        }
      ],
      "name": "Transfer",
      "type": "event"
    },
    {
      "inputs": [
        {
          "internalType": "address",
          "name": "to",
          "type": "address"
        },
        {
          "internalType": "uint256",
          "name": "tokenId",
          "type": "uint256"
        }
      ],
      "name": "approve",
      "outputs": [],
      "stateMutability": "nonpayable",
      "type": "function"
    },
    {
      "inputs": [
        {
          "internalType": "address",
          "name": "owner",
          "type": "address"
        }
      ],
      "name": "balanceOf",
      "outputs": [
        {
          "internalType": "uint256",
          "name": "",
          "type": "uint256"
        }
      ],
      "stateMutability": "view",
      "type": "function"
    },
    {
      "inputs": [
        {
          "internalType": "uint256",
          "name": "tokenId",
          "type": "uint256"
        }
      ],
      "name": "burn",
      "outputs": [],
      "stateMutability": "nonpayable",
      "type": "function"
    },
    {
      "inputs": [
        {
          "internalType": "uint256",
          "name": "tokenId",
          "type": "uint256"
        }
      ],
      "name": "getApproved",
      "outputs": [
        {
          "internalType": "address",
          "name": "",
          "type": "address"
        }
      ],
      "stateMutability": "view",
      "type": "function"
    },
    {
      "inputs": [
        {
          "internalType": "address",
          "name": "owner",
          "type": "address"
        },
        {
          "internalType": "address",
          "name": "operator",
          "type": "address"
        }
      ],
      "name": "isApprovedForAll",
      "outputs": [
        {
          "internalType": "bool",
          "name": "",
          "type": "bool"
        }
      ],
      "stateMutability": "view",
      "type": "function"
    },
    {
      "inputs": [],
      "name": "name",
      "outputs": [
        {
          "internalType": "string",
          "name": "",
          "type": "string"
        }
      ],
      "stateMutability": "view",
      "type": "function"
    },
    {
      "inputs": [
        {
          "internalType": "uint256",
          "name": "tokenId",
          "type": "uint256"
        }
      ],
      "name": "ownerOf",
      "outputs": [
        {
          "internalType": "address",
          "name": "",
          "type": "address"
        }
      ],
      "stateMutability": "view",
      "type": "function"
    },
    {
      "inputs": [
        {
          "internalType": "address",
          "name": "to",
          "type": "address"
        }
      ],
      "name": "safeMint",
      "outputs": [],
      "stateMutability": "nonpayable",
      "type": "function"
    },
    {
      "inputs": [
        {
          "internalType": "address",
          "name": "from",
          "type": "address"
        },
        {
          "internalType": "address",
          "name": "to",
          "type": "address"
        },
        {
          "internalType": "uint256",
          "name": "tokenId",
          "type": "uint256"
        }
      ],
      "name": "safeTransferFrom",
      "outputs": [],
      "stateMutability": "nonpayable",
      "type": "function"
    },
    {
      "inputs": [
        {
          "internalType": "address",
          "name": "from",
          "type": "address"
        },
        {
          "internalType": "address",
          "name": "to",
          "type": "address"
        },
        {
          "internalType": "uint256",
          "name": "tokenId",
          "type": "uint256"
        },
        {
          "internalType": "bytes",
          "name": "data",
          "type": "bytes"
        }
      ],
      "name": "safeTransferFrom",
      "outputs": [],
      "stateMutability": "nonpayable",
      "type": "function"
    },
    {
      "inputs": [
        {
          "internalType": "address",
          "name": "operator",
          "type": "address"
        },
        {
          "internalType": "bool",
          "name": "approved",
          "type": "bool"
        }
      ],
      "name": "setApprovalForAll",
      "outputs": [],
      "stateMutability": "nonpayable",
      "type": "function"
    },
    {
      "inputs": [
        {
          "internalType": "bytes4",
          "name": "interfaceId",
          "type": "bytes4"
        }
      ],
      "name": "supportsInterface",
      "outputs": [
        {
          "internalType": "bool",
          "name": "",
          "type": "bool"
        }
      ],
      "stateMutability": "view",
      "type": "function"
    },
    {
      "inputs": [],
      "name": "symbol",
      "outputs": [
        {
          "internalType": "string",
          "name": "",
          "type": "string"
        }
      ],
      "stateMutability": "view",
      "type": "function"
    },
    {
      "inputs": [
        {
          "internalType": "uint256",
          "name": "index",
          "type": "uint256"
        }
      ],
      "name": "tokenByIndex",
      "outputs": [
        {
          "internalType": "uint256",
          "name": "",
          "type": "uint256"
        }
      ],
      "stateMutability": "view",
      "type": "function"
    },
    {
      "inputs": [
        {
          "internalType": "address",
          "name": "owner",
          "type": "address"
        },
        {
          "internalType": "uint256",
          "name": "index",
          "type": "uint256"
        }
      ],
      "name": "tokenOfOwnerByIndex",
      "outputs": [
        {
          "internalType": "uint256",
          "name": "",
          "type": "uint256"
        }
      ],
      "stateMutability": "view",
      "type": "function"
    },
    {
      "inputs": [
        {
          "internalType": "uint256",
          "name": "tokenId",
          "type": "uint256"
        }
      ],
      "name": "tokenURI",
      "outputs": [
        {
          "internalType": "string",
          "name": "",
          "type": "string"
        }
      ],
      "stateMutability": "view",
      "type": "function"
    },
    {
      "inputs": [],
      "name": "totalSupply",
      "outputs": [
        {
          "internalType": "uint256",
          "name": "",
          "type": "uint256"
        }
      ],
      "stateMutability": "view",
      "type": "function"
    },
    {
      "inputs": [
        {
          "internalType": "address",
          "name": "from",
          "type": "address"
        },
        {
          "internalType": "address",
          "name": "to",
          "type": "address"
        },
        {
          "internalType": "uint256",
          "name": "tokenId",
          "type": "uint256"
        }
      ],
      "name": "transferFrom",
      "outputs": [],
      "stateMutability": "nonpayable",
      "type": "function"
    }
  ],
  "bytecode": "0x60806040523480156200001157600080fd5b506040518060400160405280600681526020017f41706566756c00000000000000000000000000000000000000000000000000008152506040518060400160405280600281526020017f414600000000000000000000000000000000000000000000000000000000000081525081600090816200008f919062000324565b508060019081620000a1919062000324565b5050506200040b565b600081519050919050565b7f4e487b7100000000000000000000000000000000000000000000000000000000600052604160045260246000fd5b7f4e487b7100000000000000000000000000000000000000000000000000000000600052602260045260246000fd5b600060028204905060018216806200012c57607f821691505b602082108103620001425762000141620000e4565b5b50919050565b60008190508160005260206000209050919050565b60006020601f8301049050919050565b600082821b905092915050565b600060088302620001ac7fffffffffffffffffffffffffffffffffffffffffffffffffffffffffffffffff826200016d565b620001b886836200016d565b95508019841693508086168417925050509392505050565b6000819050919050565b6000819050919050565b600062000205620001ff620001f984620001d0565b620001da565b620001d0565b9050919050565b6000819050919050565b6200022183620001e4565b6200023962000230826200020c565b8484546200017a565b825550505050565b600090565b6200025062000241565b6200025d81848462000216565b505050565b5b8181101562000285576200027960008262000246565b60018101905062000263565b5050565b601f821115620002d4576200029e8162000148565b620002a9846200015d565b81016020851015620002b9578190505b620002d1620002c8856200015d565b83018262000262565b50505b505050565b600082821c905092915050565b6000620002f960001984600802620002d9565b1980831691505092915050565b6000620003148383620002e6565b9150826002028217905092915050565b6200032f82620000aa565b67ffffffffffffffff8111156200034b576200034a620000b5565b5b62000357825462000113565b6200036482828562000289565b600060209050601f8311600181146200039c576000841562000387578287015190505b62000393858262000306565b86555062000403565b601f198416620003ac8662000148565b60005b82811015620003d657848901518255600182019150602085019450602081019050620003af565b86831015620003f65784890151620003f2601f891682620002e6565b8355505b6001600288020188555050505b505050505050565b6125e6806200041b6000396000f3fe608060405234801561001057600080fd5b50600436106101165760003560e01c806342966c68116100a257806395d89b411161007157806395d89b4114610303578063a22cb46514610321578063b88d4fde1461033d578063c87b56dd14610359578063e985e9c51461038957610116565b806342966c68146102575780634f6ccce7146102735780636352211e146102a357806370a08231146102d357610116565b806318160ddd116100e957806318160ddd146101b557806323b872dd146101d35780632f745c59146101ef57806340d097c31461021f57806342842e0e1461023b57610116565b806301ffc9a71461011b57806306fdde031461014b578063081812fc14610169578063095ea7b314610199575b600080fd5b61013560048036038101906101309190611d27565b6103b9565b6040516101429190611d6f565b60405180910390f35b6101536103cb565b6040516101609190611e1a565b60405180910390f35b610183600480360381019061017e9190611e72565b61045d565b6040516101909190611ee0565b60405180910390f35b6101b360048036038101906101ae9190611f27565b610479565b005b6101bd61048f565b6040516101ca9190611f76565b60405180910390f35b6101ed60048036038101906101e89190611f91565b61049c565b005b61020960048036038101906102049190611f27565b61059e565b6040516102169190611f76565b60405180910390f35b61023960048036038101906102349190611fe4565b610647565b005b61025560048036038101906102509190611f91565b610670565b005b610271600480360381019061026c9190611e72565b610690565b005b61028d60048036038101906102889190611e72565b6106a7565b60405161029a9190611f76565b60405180910390f35b6102bd60048036038101906102b89190611e72565b61071d565b6040516102ca9190611ee0565b60405180910390f35b6102ed60048036038101906102e89190611fe4565b61072f565b6040516102fa9190611f76565b60405180910390f35b61030b6107e9565b6040516103189190611e1a565b60405180910390f35b61033b6004803603810190610336919061203d565b61087b565b005b610357600480360381019061035291906121b2565b610891565b005b610373600480360381019061036e9190611e72565b6108ae565b6040516103809190611e1a565b60405180910390f35b6103a3600480360381019061039e9190612235565b610917565b6040516103b09190611d6f565b60405180910390f35b60006103c4826109ab565b9050919050565b6060600080546103da906122a4565b80601f0160208091040260200160405190810160405280929190818152602001828054610406906122a4565b80156104535780601f1061042857610100808354040283529160200191610453565b820191906000526020600020905b81548152906001019060200180831161043657829003601f168201915b5050505050905090565b600061046882610a25565b5061047282610aad565b9050919050565b61048b8282610486610aea565b610af2565b5050565b6000600880549050905090565b600073ffffffffffffffffffffffffffffffffffffffff168273ffffffffffffffffffffffffffffffffffffffff160361050e5760006040517f64a0ae920000000000000000000000000000000000000000000000000000000081526004016105059190611ee0565b60405180910390fd5b6000610522838361051d610aea565b610b04565b90508373ffffffffffffffffffffffffffffffffffffffff168173ffffffffffffffffffffffffffffffffffffffff1614610598578382826040517f64283d7b00000000000000000000000000000000000000000000000000000000815260040161058f939291906122d5565b60405180910390fd5b50505050565b60006105a98361072f565b82106105ee5782826040517fa57d13dc0000000000000000000000000000000000000000000000000000000081526004016105e592919061230c565b60405180910390fd5b600660008473ffffffffffffffffffffffffffffffffffffffff1673ffffffffffffffffffffffffffffffffffffffff168152602001908152602001600020600083815260200190815260200160002054905092915050565b6000600a600081548092919061065c90612364565b91905055905061066c8282610b1a565b5050565b61068b83838360405180602001604052806000815250610891565b505050565b6106a360008261069e610aea565b610b04565b5050565b60006106b161048f565b82106106f7576000826040517fa57d13dc0000000000000000000000000000000000000000000000000000000081526004016106ee92919061230c565b60405180910390fd5b6008828154811061070b5761070a6123ac565b5b90600052602060002001549050919050565b600061072882610a25565b9050919050565b60008073ffffffffffffffffffffffffffffffffffffffff168273ffffffffffffffffffffffffffffffffffffffff16036107a25760006040517f89c62b640000000000000000000000000000000000000000000000000000000081526004016107999190611ee0565b60405180910390fd5b600360008373ffffffffffffffffffffffffffffffffffffffff1673ffffffffffffffffffffffffffffffffffffffff168152602001908152602001600020549050919050565b6060600180546107f8906122a4565b80601f0160208091040260200160405190810160405280929190818152602001828054610824906122a4565b80156108715780601f1061084657610100808354040283529160200191610871565b820191906000526020600020905b81548152906001019060200180831161085457829003601f168201915b5050505050905090565b61088d610886610aea565b8383610b38565b5050565b61089c84848461049c565b6108a884848484610ca7565b50505050565b60606108b982610a25565b5060006108c4610e5e565b905060008151116108e4576040518060200160405280600081525061090f565b806108ee84610e75565b6040516020016108ff929190612417565b6040516020818303038152906040525b915050919050565b6000600560008473ffffffffffffffffffffffffffffffffffffffff1673ffffffffffffffffffffffffffffffffffffffff16815260200190815260200160002060008373ffffffffffffffffffffffffffffffffffffffff1673ffffffffffffffffffffffffffffffffffffffff16815260200190815260200160002060009054906101000a900460ff16905092915050565b60007f780e9d63000000000000000000000000000000000000000000000000000000007bffffffffffffffffffffffffffffffffffffffffffffffffffffffff1916827bffffffffffffffffffffffffffffffffffffffffffffffffffffffff19161480610a1e5750610a1d82610f43565b5b9050919050565b600080610a3183611025565b9050600073ffffffffffffffffffffffffffffffffffffffff168173ffffffffffffffffffffffffffffffffffffffff1603610aa457826040517f7e273289000000000000000000000000000000000000000000000000000000008152600401610a9b9190611f76565b60405180910390fd5b80915050919050565b60006004600083815260200190815260200160002060009054906101000a900473ffffffffffffffffffffffffffffffffffffffff169050919050565b600033905090565b610aff8383836001611062565b505050565b6000610b11848484611227565b90509392505050565b610b34828260405180602001604052806000815250611344565b5050565b600073ffffffffffffffffffffffffffffffffffffffff168273ffffffffffffffffffffffffffffffffffffffff1603610ba957816040517f5b08ba18000000000000000000000000000000000000000000000000000000008152600401610ba09190611ee0565b60405180910390fd5b80600560008573ffffffffffffffffffffffffffffffffffffffff1673ffffffffffffffffffffffffffffffffffffffff16815260200190815260200160002060008473ffffffffffffffffffffffffffffffffffffffff1673ffffffffffffffffffffffffffffffffffffffff16815260200190815260200160002060006101000a81548160ff0219169083151502179055508173ffffffffffffffffffffffffffffffffffffffff168373ffffffffffffffffffffffffffffffffffffffff167f17307eab39ab6107e8899845ad3d59bd9653f200f220920489ca2b5937696c3183604051610c9a9190611d6f565b60405180910390a3505050565b60008373ffffffffffffffffffffffffffffffffffffffff163b1115610e58578273ffffffffffffffffffffffffffffffffffffffff1663150b7a02610ceb610aea565b8685856040518563ffffffff1660e01b8152600401610d0d9493929190612490565b6020604051808303816000875af1925050508015610d4957506040513d601f19601f82011682018060405250810190610d4691906124f1565b60015b610dcd573d8060008114610d79576040519150601f19603f3d011682016040523d82523d6000602084013e610d7e565b606091505b506000815103610dc557836040517f64a0ae92000000000000000000000000000000000000000000000000000000008152600401610dbc9190611ee0565b60405180910390fd5b805181602001fd5b63150b7a0260e01b7bffffffffffffffffffffffffffffffffffffffffffffffffffffffff1916817bffffffffffffffffffffffffffffffffffffffffffffffffffffffff191614610e5657836040517f64a0ae92000000000000000000000000000000000000000000000000000000008152600401610e4d9190611ee0565b60405180910390fd5b505b50505050565b606060405180602001604052806000815250905090565b606060006001610e8484611360565b01905060008167ffffffffffffffff811115610ea357610ea2612087565b5b6040519080825280601f01601f191660200182016040528015610ed55781602001600182028036833780820191505090505b509050600082602001820190505b600115610f38578080600190039150507f3031323334353637383961626364656600000000000000000000000000000000600a86061a8153600a8581610f2c57610f2b61251e565b5b04945060008503610ee3575b819350505050919050565b60007f80ac58cd000000000000000000000000000000000000000000000000000000007bffffffffffffffffffffffffffffffffffffffffffffffffffffffff1916827bffffffffffffffffffffffffffffffffffffffffffffffffffffffff1916148061100e57507f5b5e139f000000000000000000000000000000000000000000000000000000007bffffffffffffffffffffffffffffffffffffffffffffffffffffffff1916827bffffffffffffffffffffffffffffffffffffffffffffffffffffffff1916145b8061101e575061101d826114b3565b5b9050919050565b60006002600083815260200190815260200160002060009054906101000a900473ffffffffffffffffffffffffffffffffffffffff169050919050565b808061109b5750600073ffffffffffffffffffffffffffffffffffffffff168273ffffffffffffffffffffffffffffffffffffffff1614155b156111cf5760006110ab84610a25565b9050600073ffffffffffffffffffffffffffffffffffffffff168373ffffffffffffffffffffffffffffffffffffffff161415801561111657508273ffffffffffffffffffffffffffffffffffffffff168173ffffffffffffffffffffffffffffffffffffffff1614155b801561112957506111278184610917565b155b1561116b57826040517fa9fbf51f0000000000000000000000000000000000000000000000000000000081526004016111629190611ee0565b60405180910390fd5b81156111cd57838573ffffffffffffffffffffffffffffffffffffffff168273ffffffffffffffffffffffffffffffffffffffff167f8c5be1e5ebec7d5bd14f71427d1e84f3dd0314c0f7b2291e5b200ac8c7c3b92560405160405180910390a45b505b836004600085815260200190815260200160002060006101000a81548173ffffffffffffffffffffffffffffffffffffffff021916908373ffffffffffffffffffffffffffffffffffffffff16021790555050505050565b60008061123585858561151d565b9050600073ffffffffffffffffffffffffffffffffffffffff168173ffffffffffffffffffffffffffffffffffffffff16036112795761127484611737565b6112b8565b8473ffffffffffffffffffffffffffffffffffffffff168173ffffffffffffffffffffffffffffffffffffffff16146112b7576112b68185611780565b5b5b600073ffffffffffffffffffffffffffffffffffffffff168573ffffffffffffffffffffffffffffffffffffffff16036112fa576112f5846118e1565b611339565b8473ffffffffffffffffffffffffffffffffffffffff168173ffffffffffffffffffffffffffffffffffffffff16146113385761133785856119b2565b5b5b809150509392505050565b61134e8383611a3d565b61135b6000848484610ca7565b505050565b600080600090507a184f03e93ff9f4daa797ed6e38ed64bf6a1f01000000000000000083106113be577a184f03e93ff9f4daa797ed6e38ed64bf6a1f01000000000000000083816113b4576113b361251e565b5b0492506040810190505b6d04ee2d6d415b85acef810000000083106113fb576d04ee2d6d415b85acef810000000083816113f1576113f061251e565b5b0492506020810190505b662386f26fc10000831061142a57662386f26fc1000083816114205761141f61251e565b5b0492506010810190505b6305f5e1008310611453576305f5e10083816114495761144861251e565b5b0492506008810190505b612710831061147857612710838161146e5761146d61251e565b5b0492506004810190505b6064831061149b57606483816114915761149061251e565b5b0492506002810190505b600a83106114aa576001810190505b80915050919050565b60007f01ffc9a7000000000000000000000000000000000000000000000000000000007bffffffffffffffffffffffffffffffffffffffffffffffffffffffff1916827bffffffffffffffffffffffffffffffffffffffffffffffffffffffff1916149050919050565b60008061152984611025565b9050600073ffffffffffffffffffffffffffffffffffffffff168373ffffffffffffffffffffffffffffffffffffffff161461156b5761156a818486611b36565b5b600073ffffffffffffffffffffffffffffffffffffffff168173ffffffffffffffffffffffffffffffffffffffff16146115fc576115ad600085600080611062565b6001600360008373ffffffffffffffffffffffffffffffffffffffff1673ffffffffffffffffffffffffffffffffffffffff168152602001908152602001600020600082825403925050819055505b600073ffffffffffffffffffffffffffffffffffffffff168573ffffffffffffffffffffffffffffffffffffffff161461167f576001600360008773ffffffffffffffffffffffffffffffffffffffff1673ffffffffffffffffffffffffffffffffffffffff168152602001908152602001600020600082825401925050819055505b846002600086815260200190815260200160002060006101000a81548173ffffffffffffffffffffffffffffffffffffffff021916908373ffffffffffffffffffffffffffffffffffffffff160217905550838573ffffffffffffffffffffffffffffffffffffffff168273ffffffffffffffffffffffffffffffffffffffff167fddf252ad1be2c89b69c2b068fc378daa952ba7f163c4a11628f55a4df523b3ef60405160405180910390a4809150509392505050565b6008805490506009600083815260200190815260200160002081905550600881908060018154018082558091505060019003906000526020600020016000909190919091505550565b600061178b8361072f565b9050600060076000848152602001908152602001600020549050818114611870576000600660008673ffffffffffffffffffffffffffffffffffffffff1673ffffffffffffffffffffffffffffffffffffffff168152602001908152602001600020600084815260200190815260200160002054905080600660008773ffffffffffffffffffffffffffffffffffffffff1673ffffffffffffffffffffffffffffffffffffffff168152602001908152602001600020600084815260200190815260200160002081905550816007600083815260200190815260200160002081905550505b6007600084815260200190815260200160002060009055600660008573ffffffffffffffffffffffffffffffffffffffff1673ffffffffffffffffffffffffffffffffffffffff16815260200190815260200160002060008381526020019081526020016000206000905550505050565b600060016008805490506118f5919061254d565b9050600060096000848152602001908152602001600020549050600060088381548110611925576119246123ac565b5b906000526020600020015490508060088381548110611947576119466123ac565b5b90600052602060002001819055508160096000838152602001908152602001600020819055506009600085815260200190815260200160002060009055600880548061199657611995612581565b5b6001900381819060005260206000200160009055905550505050565b600060016119bf8461072f565b6119c9919061254d565b905081600660008573ffffffffffffffffffffffffffffffffffffffff1673ffffffffffffffffffffffffffffffffffffffff168152602001908152602001600020600083815260200190815260200160002081905550806007600084815260200190815260200160002081905550505050565b600073ffffffffffffffffffffffffffffffffffffffff168273ffffffffffffffffffffffffffffffffffffffff1603611aaf5760006040517f64a0ae92000000000000000000000000000000000000000000000000000000008152600401611aa69190611ee0565b60405180910390fd5b6000611abd83836000610b04565b9050600073ffffffffffffffffffffffffffffffffffffffff168173ffffffffffffffffffffffffffffffffffffffff1614611b315760006040517f73c6ac6e000000000000000000000000000000000000000000000000000000008152600401611b289190611ee0565b60405180910390fd5b505050565b611b41838383611bfa565b611bf557600073ffffffffffffffffffffffffffffffffffffffff168373ffffffffffffffffffffffffffffffffffffffff1603611bb657806040517f7e273289000000000000000000000000000000000000000000000000000000008152600401611bad9190611f76565b60405180910390fd5b81816040517f177e802f000000000000000000000000000000000000000000000000000000008152600401611bec92919061230c565b60405180910390fd5b505050565b60008073ffffffffffffffffffffffffffffffffffffffff168373ffffffffffffffffffffffffffffffffffffffff1614158015611cb257508273ffffffffffffffffffffffffffffffffffffffff168473ffffffffffffffffffffffffffffffffffffffff161480611c735750611c728484610917565b5b80611cb157508273ffffffffffffffffffffffffffffffffffffffff16611c9983610aad565b73ffffffffffffffffffffffffffffffffffffffff16145b5b90509392505050565b6000604051905090565b600080fd5b600080fd5b60007fffffffff0000000000000000000000000000000000000000000000000000000082169050919050565b611d0481611ccf565b8114611d0f57600080fd5b50565b600081359050611d2181611cfb565b92915050565b600060208284031215611d3d57611d3c611cc5565b5b6000611d4b84828501611d12565b91505092915050565b60008115159050919050565b611d6981611d54565b82525050565b6000602082019050611d846000830184611d60565b92915050565b600081519050919050565b600082825260208201905092915050565b60005b83811015611dc4578082015181840152602081019050611da9565b60008484015250505050565b6000601f19601f8301169050919050565b6000611dec82611d8a565b611df68185611d95565b9350611e06818560208601611da6565b611e0f81611dd0565b840191505092915050565b60006020820190508181036000830152611e348184611de1565b905092915050565b6000819050919050565b611e4f81611e3c565b8114611e5a57600080fd5b50565b600081359050611e6c81611e46565b92915050565b600060208284031215611e8857611e87611cc5565b5b6000611e9684828501611e5d565b91505092915050565b600073ffffffffffffffffffffffffffffffffffffffff82169050919050565b6000611eca82611e9f565b9050919050565b611eda81611ebf565b82525050565b6000602082019050611ef56000830184611ed1565b92915050565b611f0481611ebf565b8114611f0f57600080fd5b50565b600081359050611f2181611efb565b92915050565b60008060408385031215611f3e57611f3d611cc5565b5b6000611f4c85828601611f12565b9250506020611f5d85828601611e5d565b9150509250929050565b611f7081611e3c565b82525050565b6000602082019050611f8b6000830184611f67565b92915050565b600080600060608486031215611faa57611fa9611cc5565b5b6000611fb886828701611f12565b9350506020611fc986828701611f12565b9250506040611fda86828701611e5d565b9150509250925092565b600060208284031215611ffa57611ff9611cc5565b5b600061200884828501611f12565b91505092915050565b61201a81611d54565b811461202557600080fd5b50565b60008135905061203781612011565b92915050565b6000806040838503121561205457612053611cc5565b5b600061206285828601611f12565b925050602061207385828601612028565b9150509250929050565b600080fd5b600080fd5b7f4e487b7100000000000000000000000000000000000000000000000000000000600052604160045260246000fd5b6120bf82611dd0565b810181811067ffffffffffffffff821117156120de576120dd612087565b5b80604052505050565b60006120f1611cbb565b90506120fd82826120b6565b919050565b600067ffffffffffffffff82111561211d5761211c612087565b5b61212682611dd0565b9050602081019050919050565b82818337600083830152505050565b600061215561215084612102565b6120e7565b90508281526020810184848401111561217157612170612082565b5b61217c848285612133565b509392505050565b600082601f8301126121995761219861207d565b5b81356121a9848260208601612142565b91505092915050565b600080600080608085870312156121cc576121cb611cc5565b5b60006121da87828801611f12565b94505060206121eb87828801611f12565b93505060406121fc87828801611e5d565b925050606085013567ffffffffffffffff81111561221d5761221c611cca565b5b61222987828801612184565b91505092959194509250565b6000806040838503121561224c5761224b611cc5565b5b600061225a85828601611f12565b925050602061226b85828601611f12565b9150509250929050565b7f4e487b7100000000000000000000000000000000000000000000000000000000600052602260045260246000fd5b600060028204905060018216806122bc57607f821691505b6020821081036122cf576122ce612275565b5b50919050565b60006060820190506122ea6000830186611ed1565b6122f76020830185611f67565b6123046040830184611ed1565b949350505050565b60006040820190506123216000830185611ed1565b61232e6020830184611f67565b9392505050565b7f4e487b7100000000000000000000000000000000000000000000000000000000600052601160045260246000fd5b600061236f82611e3c565b91507fffffffffffffffffffffffffffffffffffffffffffffffffffffffffffffffff82036123a1576123a0612335565b5b600182019050919050565b7f4e487b7100000000000000000000000000000000000000000000000000000000600052603260045260246000fd5b600081905092915050565b60006123f182611d8a565b6123fb81856123db565b935061240b818560208601611da6565b80840191505092915050565b600061242382856123e6565b915061242f82846123e6565b91508190509392505050565b600081519050919050565b600082825260208201905092915050565b60006124628261243b565b61246c8185612446565b935061247c818560208601611da6565b61248581611dd0565b840191505092915050565b60006080820190506124a56000830187611ed1565b6124b26020830186611ed1565b6124bf6040830185611f67565b81810360608301526124d18184612457565b905095945050505050565b6000815190506124eb81611cfb565b92915050565b60006020828403121561250757612506611cc5565b5b6000612515848285016124dc565b91505092915050565b7f4e487b7100000000000000000000000000000000000000000000000000000000600052601260045260246000fd5b600061255882611e3c565b915061256383611e3c565b925082820390508181111561257b5761257a612335565b5b92915050565b7f4e487b7100000000000000000000000000000000000000000000000000000000600052603160045260246000fdfea2646970667358221220fdaae1ed51e816f7fd3c4f879ae61966318cf80b43e36a3c83da4cee37ad25cd64736f6c63430008180033",
  "linkReferences": {},
  "deployedLinkReferences": {}
}